{
  "contractName": "VotingContract",
  "abi": [
    {
      "inputs": [
        {
          "internalType": "uint256",
          "name": "_votingDuration",
          "type": "uint256"
        }
      ],
      "payable": false,
      "stateMutability": "nonpayable",
      "type": "constructor"
    },
    {
      "anonymous": false,
      "inputs": [
        {
          "indexed": true,
          "internalType": "address",
          "name": "_adder",
          "type": "address"
        },
        {
          "indexed": true,
          "internalType": "uint256",
          "name": "_studentId",
          "type": "uint256"
        },
        {
          "indexed": true,
          "internalType": "uint256",
          "name": "_candidateId",
          "type": "uint256"
        },
        {
          "indexed": false,
          "internalType": "string",
          "name": "_name",
          "type": "string"
        }
      ],
      "name": "CandidateAdded",
      "type": "event"
    },
    {
      "anonymous": false,
      "inputs": [
        {
          "indexed": true,
          "internalType": "address",
          "name": "_voter",
          "type": "address"
        },
        {
          "indexed": true,
          "internalType": "uint256",
          "name": "_studentId",
          "type": "uint256"
        },
        {
          "indexed": true,
          "internalType": "uint256",
          "name": "_candidateId",
          "type": "uint256"
        }
      ],
      "name": "Voted",
      "type": "event"
    },
    {
      "constant": true,
      "inputs": [
        {
          "internalType": "uint256",
          "name": "",
          "type": "uint256"
        }
      ],
      "name": "candidates",
      "outputs": [
        {
          "internalType": "uint256",
          "name": "id",
          "type": "uint256"
        },
        {
          "internalType": "string",
          "name": "name",
          "type": "string"
        },
        {
          "internalType": "uint256",
          "name": "voteCount",
          "type": "uint256"
        }
      ],
      "payable": false,
      "stateMutability": "view",
      "type": "function"
    },
    {
      "constant": true,
      "inputs": [],
      "name": "candidatesCount",
      "outputs": [
        {
          "internalType": "uint256",
          "name": "",
          "type": "uint256"
        }
      ],
      "payable": false,
      "stateMutability": "view",
      "type": "function"
    },
    {
      "constant": true,
      "inputs": [
        {
          "internalType": "address",
          "name": "",
          "type": "address"
        }
      ],
      "name": "hasVoted",
      "outputs": [
        {
          "internalType": "bool",
          "name": "",
          "type": "bool"
        }
      ],
      "payable": false,
      "stateMutability": "view",
      "type": "function"
    },
    {
      "constant": true,
      "inputs": [],
      "name": "startTime",
      "outputs": [
        {
          "internalType": "uint256",
          "name": "",
          "type": "uint256"
        }
      ],
      "payable": false,
      "stateMutability": "view",
      "type": "function"
    },
    {
      "constant": true,
      "inputs": [
        {
          "internalType": "uint256",
          "name": "",
          "type": "uint256"
        }
      ],
      "name": "studentIdToAddress",
      "outputs": [
        {
          "internalType": "address",
          "name": "",
          "type": "address"
        }
      ],
      "payable": false,
      "stateMutability": "view",
      "type": "function"
    },
    {
      "constant": true,
      "inputs": [
        {
          "internalType": "address",
          "name": "",
          "type": "address"
        }
      ],
      "name": "votes",
      "outputs": [
        {
          "internalType": "address",
          "name": "voter",
          "type": "address"
        },
        {
          "internalType": "uint256",
          "name": "candidateId",
          "type": "uint256"
        }
      ],
      "payable": false,
      "stateMutability": "view",
      "type": "function"
    },
    {
      "constant": true,
      "inputs": [],
      "name": "votingDuration",
      "outputs": [
        {
          "internalType": "uint256",
          "name": "",
          "type": "uint256"
        }
      ],
      "payable": false,
      "stateMutability": "view",
      "type": "function"
    },
    {
      "constant": false,
      "inputs": [
        {
          "internalType": "string",
          "name": "_name",
          "type": "string"
        },
        {
          "internalType": "uint256",
          "name": "_studentId",
          "type": "uint256"
        }
      ],
      "name": "addCandidate",
      "outputs": [],
      "payable": false,
      "stateMutability": "nonpayable",
      "type": "function"
    },
    {
      "constant": false,
      "inputs": [
        {
          "internalType": "uint256",
          "name": "_candidateId",
          "type": "uint256"
        },
        {
          "internalType": "uint256",
          "name": "_studentId",
          "type": "uint256"
        }
      ],
      "name": "vote",
      "outputs": [],
      "payable": false,
      "stateMutability": "nonpayable",
      "type": "function"
    }
  ],
  "bytecode": "0x60806040523480156200001157600080fd5b5060405162000d4238038062000d42833981810160405260208110156200003757600080fd5b505142600555600681905560408051808201909152600b81526a43616e646964617465203160a81b60208201526200007b906127116001600160e01b03620000bb16565b60408051808201909152600b81526a21b0b73234b230ba32901960a91b6020820152620000b4906127126001600160e01b03620000bb16565b506200037e565b6006546005540142111562000117576040805162461bcd60e51b815260206004820152601860248201527f566f74696e6720706572696f642068617320656e6465642e0000000000000000604482015290519081900360640190fd5b6000818152600360205260409020546001600160a01b031615806200015257506000818152600360205260409020546001600160a01b031633145b6200018f5760405162461bcd60e51b815260040180806020018281038252603981526020018062000d096039913960400191505060405180910390fd5b6000818152600360205260409020546001600160a01b0316620001cb57600081815260036020526040902080546001600160a01b031916331790555b600480546001908101918290556040805160608101825283815260208082018781526000838501819052958652848252929094208151815591518051919492936200021d9390850192910190620002d9565b506040820151816002015590505060045481336001600160a01b03167f44355bf8fabe844322e4c6516e12e9ba70174a357217a075528812b9247fc13f856040518080602001828103825283818151815260200191508051906020019080838360005b838110156200029a57818101518382015260200162000280565b50505050905090810190601f168015620002c85780820380516001836020036101000a031916815260200191505b509250505060405180910390a45050565b828054600181600116156101000203166002900490600052602060002090601f016020900481019282601f106200031c57805160ff19168380011785556200034c565b828001600101855582156200034c579182015b828111156200034c5782518255916020019190600101906200032f565b506200035a9291506200035e565b5090565b6200037b91905b808211156200035a576000815560010162000365565b90565b61097b806200038e6000396000f3fe608060405234801561001057600080fd5b50600436106100935760003560e01c8063377744a611610066578063377744a61461019757806378e97925146101d0578063b384abef146101d8578063d8bff5a5146101fd578063e23cec7b1461024657610093565b806309eef43e14610098578063132002fc146100d25780632d35a8a2146100ec5780633477ee2e146100f4575b600080fd5b6100be600480360360208110156100ae57600080fd5b50356001600160a01b03166102ee565b604080519115158252519081900360200190f35b6100da610303565b60408051918252519081900360200190f35b6100da610309565b6101116004803603602081101561010a57600080fd5b503561030f565b6040518084815260200180602001838152602001828103825284818151815260200191508051906020019080838360005b8381101561015a578181015183820152602001610142565b50505050905090810190601f1680156101875780820380516001836020036101000a031916815260200191505b5094505050505060405180910390f35b6101b4600480360360208110156101ad57600080fd5b50356103bb565b604080516001600160a01b039092168252519081900360200190f35b6100da6103d6565b6101fb600480360360408110156101ee57600080fd5b50803590602001356103dc565b005b6102236004803603602081101561021357600080fd5b50356001600160a01b031661063e565b604080516001600160a01b03909316835260208301919091528051918290030190f35b6101fb6004803603604081101561025c57600080fd5b81019060208101813564010000000081111561027757600080fd5b82018360208201111561028957600080fd5b803590602001918460018302840111640100000000831117156102ab57600080fd5b91908080601f0160208091040260200160405190810160405280939291908181526020018383808284376000920191909152509295505091359250610663915050565b60006020819052908152604090205460ff1681565b60065481565b60045481565b600160208181526000928352604092839020805481840180548651600296821615610100026000190190911695909504601f810185900485028601850190965285855290949193929091908301828280156103ab5780601f10610380576101008083540402835291602001916103ab565b820191906000526020600020905b81548152906001019060200180831161038e57829003601f168201915b5050505050908060020154905083565b6003602052600090815260409020546001600160a01b031681565b60055481565b60065460055401421115610432576040805162461bcd60e51b81526020600482015260186024820152772b37ba34b733903832b934b7b2103430b99032b73232b21760411b604482015290519081900360640190fd5b6000818152600360205260409020546001600160a01b0316158061046c57506000818152600360205260409020546001600160a01b031633145b6104a75760405162461bcd60e51b815260040180806020018281038252603981526020018061090e6039913960400191505060405180910390fd5b6000821180156104b957506004548211155b6104ff576040805162461bcd60e51b815260206004820152601260248201527124b73b30b634b21031b0b73234b230ba329760711b604482015290519081900360640190fd5b3360009081526020819052604090205460ff1615610564576040805162461bcd60e51b815260206004820152601760248201527f596f75206861766520616c726561647920766f7465642e000000000000000000604482015290519081900360640190fd5b6000818152600360205260409020546001600160a01b031661059f57600081815260036020526040902080546001600160a01b031916331790555b336000818152602081815260408083208054600160ff19909116811790915586845280835281842060029081018054830190558251808401845286815280850189815287875291909452828520935184546001600160a01b0319166001600160a01b0390911617845551920191909155518492849290917fea66f58e474bc09f580000e81f31b334d171db387d0c6098ba47bd897741679b9190a45050565b600260205260009081526040902080546001909101546001600160a01b039091169082565b600654600554014211156106b9576040805162461bcd60e51b81526020600482015260186024820152772b37ba34b733903832b934b7b2103430b99032b73232b21760411b604482015290519081900360640190fd5b6000818152600360205260409020546001600160a01b031615806106f357506000818152600360205260409020546001600160a01b031633145b61072e5760405162461bcd60e51b815260040180806020018281038252603981526020018061090e6039913960400191505060405180910390fd5b6000818152600360205260409020546001600160a01b031661076957600081815260036020526040902080546001600160a01b031916331790555b600480546001908101918290556040805160608101825283815260208082018781526000838501819052958652848252929094208151815591518051919492936107b99390850192910190610872565b506040820151816002015590505060045481336001600160a01b03167f44355bf8fabe844322e4c6516e12e9ba70174a357217a075528812b9247fc13f856040518080602001828103825283818151815260200191508051906020019080838360005b8381101561083457818101518382015260200161081c565b50505050905090810190601f1680156108615780820380516001836020036101000a031916815260200191505b509250505060405180910390a45050565b828054600181600116156101000203166002900490600052602060002090601f016020900481019282601f106108b357805160ff19168380011785556108e0565b828001600101855582156108e0579182015b828111156108e05782518255916020019190600101906108c5565b506108ec9291506108f0565b5090565b61090a91905b808211156108ec57600081556001016108f6565b9056fe546869732073747564656e7420494420697320616c726561647920757365642077697468206120646966666572656e7420616464726573732ea265627a7a723158205c40be00f898093baa2ecf4989ea6b3560c10711a90a186ad92594667f9e813664736f6c63430005100032546869732073747564656e7420494420697320616c726561647920757365642077697468206120646966666572656e7420616464726573732e",
  "source": "pragma solidity ^0.5.16;\n\ncontract VotingContract {\n    struct Candidate {\n        uint id;\n        string name;\n        uint voteCount;\n    }\n\n    struct Vote {\n        address voter;\n        uint candidateId;\n    }\n\n    mapping(address => bool) public hasVoted;\n    mapping(uint => Candidate) public candidates;\n    mapping(address => Vote) public votes;\n    mapping(uint => address) public studentIdToAddress; // Maps student IDs to addresses\n    uint public candidatesCount;\n\n    uint public startTime;\n    uint public votingDuration;\n\n    event Voted(address indexed _voter, uint indexed _studentId, uint indexed _candidateId);\n    event CandidateAdded(address indexed _adder, uint indexed _studentId, uint indexed _candidateId, string _name);\n\n    constructor(uint _votingDuration) public {\n        startTime = now; // 'now' is an alias for 'block.timestamp', which gets the current block timestamp\n        votingDuration = _votingDuration; // Set the voting duration in seconds\n\n        addCandidate(\"Candidate 1\", 10001);\n        addCandidate(\"Candidate 2\", 10002);\n    }\n\n    modifier withinVotingPeriod() {\n        require(now <= startTime + votingDuration, \"Voting period has ended.\");\n        _;\n    }\n\n    function addCandidate(string memory _name, uint _studentId) public withinVotingPeriod {\n        require(studentIdToAddress[_studentId] == address(0) || studentIdToAddress[_studentId] == msg.sender, \"This student ID is already used with a different address.\");\n        if (studentIdToAddress[_studentId] == address(0)) {\n            studentIdToAddress[_studentId] = msg.sender;\n        }\n        candidatesCount++;\n        candidates[candidatesCount] = Candidate(candidatesCount, _name, 0);\n        emit CandidateAdded(msg.sender, _studentId, candidatesCount, _name);\n    }\n\n    function vote(uint _candidateId, uint _studentId) public withinVotingPeriod {\n        require(studentIdToAddress[_studentId] == address(0) || studentIdToAddress[_studentId] == msg.sender, \"This student ID is already used with a different address.\");\n        require(_candidateId > 0 && _candidateId <= candidatesCount, \"Invalid candidate.\");\n        require(!hasVoted[msg.sender], \"You have already voted.\");\n\n        if (studentIdToAddress[_studentId] == address(0)) {\n            studentIdToAddress[_studentId] = msg.sender;\n        }\n\n        hasVoted[msg.sender] = true;\n        candidates[_candidateId].voteCount++;\n        votes[msg.sender] = Vote(msg.sender, _candidateId);\n\n        emit Voted(msg.sender, _studentId, _candidateId);\n    }\n}\n",
  "sourcePath": "/Users/trevor/Desktop/BlockchainProject/blockchainproject/contracts/VotingContract.sol",
  "compiler": {
    "name": "solc",
    "version": "0.5.16+commit.9c3226ce.Emscripten.clang"
  },
  "schemaVersion": "3.4.16",
  "updatedAt": "2024-05-08T03:47:57.450Z",
  "networkType": "ethereum",
  "devdoc": {
    "methods": {}
  },
  "userdoc": {
    "methods": {}
  }
}